:020000020000FC
:0800000029C000000C9442002D
:100050000C944A002AD00FEF332407B908B902E004
:10006000009369000DB301600DBB00E000938000B8
:1000700004E00093810001E000936F007894000099
:10008000FECFFFCF0F931F931FB733941FBF1F9156
:100090000F9118950F931FB736943694832D05D082
:1000A00010D133241FBF0F9118950F931F932F93D7
:1000B0003F93CF93DF93CDB7DEB721971FEF10BBF0
:1000C00011B9112711BB12B928E93AE313E01A95C7
:1000D0000000E9F721503040C9F708E301BB2227AF
:1000E00022B90000169A00000000000016980000D7
:1000F0000000000024E030E113E01A950000E9F769
:1001000021503040C9F701BB222722B90000169ABE
:10011000000000000000169800000000000024E627
:1001200030E013E01A950000E9F721503040C9F79C
:1001300001BB222722B90000169A0000000000002F
:10014000169800000000000001BB222722B9000021
:10015000169A000000000000169800000000000041
:10016000222710BB20E222B90000169A00000000EE
:1001700000002FB1169827FDF7CF00000000000007
:10018000222722B92FEF20BB00000000000008E06A
:1001900001BB222722B90000169A000000000000CF
:1001A0001698000000000000222710BB20E222B9B0
:1001B0000000169A0000000000002FB1169827FDDD
:1001C000F7CF000000000000222722B92FEF20BB4C
:1001D00000000000000001E001BB222722B900005E
:1001E000169A0000000000001698000000000000B1
:1001F000222710BB20E222B90000169A000000005E
:1002000000002FB1169827FDF7CF00000000000076
:10021000222722B92FEF20BB00000000000006E0DB
:1002200001BB222722B90000169A0000000000003E
:100230001698000000000000222710BB20E222B91F
:100240000000169A0000000000002FB1169827FD4C
:10025000F7CF000000000000222722B92FEF20BBBB
:100260000000000000000FE001BB222722B90000BF
:10027000169A000000000000169800000000000020
:10028000222710BB20E222B90000169A00000000CD
:1002900000002FB1169827FDF7CF000000000000E6
:1002A000222722B92FEF20BB00000000000021967A
:1002B000DEBFCDBFDF91CF913F912F911F910F9165
:1002C000089570E3A82FAA23C4E678D0BD2FB030DC
:1002D00009F424C0B70FB1BB20E822B90000169A78
:1002E0000000000000001698000000000000222717
:1002F00010BB20E222B90000169A000000000000A6
:100300002FB1169827FDF7CF00000000000022272C
:1003100022B92FEF20BB000000000000CAE04ED041
:10032000BD2FB03009F424C0B70FB1BB20E822B90B
:100330000000169A0000000000001698000000005F
:100340000000222710BB20E222B90000169A00000C
:10035000000000002FB1169827FDF7CF0000000025
:100360000000222722B92FEF20BB00000000000070
:10037000E70FBE2FB1BB20E822B90000169A00009B
:10038000000000001698000000000000222710BBAB
:1003900020E222B90000169A0000000000002FB1F0
:1003A000169827FDF7CF000000000000222722B991
:1003B0002FEF20BB0000000000000895DD27EE278E
:0E03C000AC1718F0AC1BD395FBCFEA2F0895B5
:00000001FF
